S0180000626F6F745F6C6F616465725F657063732E7372656378
S11300003A7001007400C0043A48019804F8FF9C57
S11300101EFD3F983A2000003AE02E00064A0000F8
S1130020C4FF7F013AE02E00063000003A88073012
S11300303AE02E00062D00003A8809302604001804
S113004026FF7F193AE02E000608000006F53F005F
S11300503AE02E00061F00003AE83E2006FF3F006B
S11300603AE02E00061B000006FF3F000401C0BD5D
S11300703A880719C4FFFF18370240920C10404A0F
S113008026FD3F4835010090370240920C20404A3B
S113009026FD3F483700409235010090250040225C
S11300A0440000211EF8FF20370240920C20404AF1
S11300B026FD3F4837004092250040223A6800B8A8
S11300C0040001033503009334C0C0023AB09658CB
S11300D0060700000401C0BD370200930C0800634A
S11300E026FD3F60350300903A6800B83A8817004F
S11300F0040100BA3A880D00040100053A121658AA
S11301003AE02E00060600003AB08C323A160C3063
S1130110C4FF3FA51EF93FA03A6800403A88170083
S11301200401C0BD370240920C10404A26FD3F48EE
S11301303501C092370240920C20404A26FD3F48C8
S1130140230080923A6800B8040140BB3AE01C00E6
S1130150D47F807444008094040080003AE02E0030
S113016006D73F00040001048415C003C43F800384
S11301703AE02E0006E93F002604C0531E168053C1
S1130180C4FF3F841EFA3F8006B53F003AE02E00CC
S113019006D63F003AE02E0006D43F003A880530E8
S11301A0F4C34304C4C3438C040100043A705C14D4
S11301B03A981C743AD804143A7044143AB084132C
S11301C07AD020803A981C8C3AF0A28B1EF73F809C
S11301D0C4018010FAD004103AE02E0006BD3F009E
S10F01E03AE02E0006B63F003A680068C2
S9030000FC
